:100000000C9434000C9449000C9449000C94490061
:100010000C9449000C9449000C9449000C9449003C
:100020000C9449000C9449000C9449000C9449002C
:100030000C9449000C9449000C9449000C9449001C
:100040000C9449000C9449000C9449000C9449000C
:100050000C9449000C9449000C9449000C944900FC
:100060000C9449000C94490011241FBECFEFD8E036
:10007000DEBFCDBF11E0A0E0B1E0EEEFF0E002C0E6
:1000800005900D92AA31B107D9F70E9472000C9425
:100090007D000C9400001092C50087E68093C40098
:1000A00088E18093C10086E08093C200089590911A
:1000B000C00095FFFCCF8093C6000895CF93DF93D7
:1000C000EC018881811103C0DF91CF9108952196C1
:1000D0000E945700F6CF8091C00087FFFCCF80912F
:1000E000C60008950E944B0080E091E00E945E00EF
:0E00F0000E946B000E945700FBCFF894FFCFD8
:1000FE0048656C6C6F2066726F6D2061746D6567FC
:0A010E006133323870210D0A000041
:00000001FF
